{
  "_format": "hh-sol-artifact-1",
  "contractName": "TestERC20",
  "sourceName": "contracts/TestERC20.sol",
  "abi": [
    {
      "inputs": [
        {
          "internalType": "uint256",
          "name": "supply",
          "type": "uint256"
        },
        {
          "internalType": "uint256",
          "name": "chainId",
          "type": "uint256"
        }
      ],
      "stateMutability": "nonpayable",
      "type": "constructor"
    },
    {
      "anonymous": false,
      "inputs": [
        {
          "indexed": true,
          "internalType": "address",
          "name": "owner",
          "type": "address"
        },
        {
          "indexed": true,
          "internalType": "address",
          "name": "spender",
          "type": "address"
        },
        {
          "indexed": false,
          "internalType": "uint256",
          "name": "value",
          "type": "uint256"
        }
      ],
      "name": "Approval",
      "type": "event"
    },
    {
      "anonymous": false,
      "inputs": [
        {
          "indexed": true,
          "internalType": "address",
          "name": "from",
          "type": "address"
        },
        {
          "indexed": true,
          "internalType": "address",
          "name": "to",
          "type": "address"
        },
        {
          "indexed": false,
          "internalType": "uint256",
          "name": "value",
          "type": "uint256"
        }
      ],
      "name": "Transfer",
      "type": "event"
    },
    {
      "inputs": [],
      "name": "DOMAIN_SEPARATOR",
      "outputs": [
        {
          "internalType": "bytes32",
          "name": "",
          "type": "bytes32"
        }
      ],
      "stateMutability": "view",
      "type": "function"
    },
    {
      "inputs": [],
      "name": "PERMIT_TYPEHASH",
      "outputs": [
        {
          "internalType": "bytes32",
          "name": "",
          "type": "bytes32"
        }
      ],
      "stateMutability": "view",
      "type": "function"
    },
    {
      "inputs": [
        {
          "internalType": "address",
          "name": "owner",
          "type": "address"
        },
        {
          "internalType": "address",
          "name": "spender",
          "type": "address"
        }
      ],
      "name": "allowance",
      "outputs": [
        {
          "internalType": "uint256",
          "name": "",
          "type": "uint256"
        }
      ],
      "stateMutability": "view",
      "type": "function"
    },
    {
      "inputs": [
        {
          "internalType": "address",
          "name": "spender",
          "type": "address"
        },
        {
          "internalType": "uint256",
          "name": "amount",
          "type": "uint256"
        }
      ],
      "name": "approve",
      "outputs": [
        {
          "internalType": "bool",
          "name": "",
          "type": "bool"
        }
      ],
      "stateMutability": "nonpayable",
      "type": "function"
    },
    {
      "inputs": [
        {
          "internalType": "address",
          "name": "account",
          "type": "address"
        }
      ],
      "name": "balanceOf",
      "outputs": [
        {
          "internalType": "uint256",
          "name": "",
          "type": "uint256"
        }
      ],
      "stateMutability": "view",
      "type": "function"
    },
    {
      "inputs": [
        {
          "internalType": "address",
          "name": "from",
          "type": "address"
        },
        {
          "internalType": "uint256",
          "name": "amount",
          "type": "uint256"
        }
      ],
      "name": "burn",
      "outputs": [],
      "stateMutability": "nonpayable",
      "type": "function"
    },
    {
      "inputs": [],
      "name": "chainId",
      "outputs": [
        {
          "internalType": "uint256",
          "name": "",
          "type": "uint256"
        }
      ],
      "stateMutability": "view",
      "type": "function"
    },
    {
      "inputs": [],
      "name": "decimals",
      "outputs": [
        {
          "internalType": "uint8",
          "name": "",
          "type": "uint8"
        }
      ],
      "stateMutability": "view",
      "type": "function"
    },
    {
      "inputs": [
        {
          "internalType": "address",
          "name": "spender",
          "type": "address"
        },
        {
          "internalType": "uint256",
          "name": "subtractedValue",
          "type": "uint256"
        }
      ],
      "name": "decreaseAllowance",
      "outputs": [
        {
          "internalType": "bool",
          "name": "",
          "type": "bool"
        }
      ],
      "stateMutability": "nonpayable",
      "type": "function"
    },
    {
      "inputs": [
        {
          "internalType": "address",
          "name": "spender",
          "type": "address"
        },
        {
          "internalType": "uint256",
          "name": "addedValue",
          "type": "uint256"
        }
      ],
      "name": "increaseAllowance",
      "outputs": [
        {
          "internalType": "bool",
          "name": "",
          "type": "bool"
        }
      ],
      "stateMutability": "nonpayable",
      "type": "function"
    },
    {
      "inputs": [
        {
          "internalType": "address",
          "name": "to",
          "type": "address"
        },
        {
          "internalType": "uint256",
          "name": "amount",
          "type": "uint256"
        }
      ],
      "name": "mint",
      "outputs": [],
      "stateMutability": "nonpayable",
      "type": "function"
    },
    {
      "inputs": [],
      "name": "name",
      "outputs": [
        {
          "internalType": "string",
          "name": "",
          "type": "string"
        }
      ],
      "stateMutability": "view",
      "type": "function"
    },
    {
      "inputs": [
        {
          "internalType": "address",
          "name": "",
          "type": "address"
        }
      ],
      "name": "nonces",
      "outputs": [
        {
          "internalType": "uint256",
          "name": "",
          "type": "uint256"
        }
      ],
      "stateMutability": "view",
      "type": "function"
    },
    {
      "inputs": [
        {
          "internalType": "address",
          "name": "owner",
          "type": "address"
        },
        {
          "internalType": "address",
          "name": "spender",
          "type": "address"
        },
        {
          "internalType": "uint256",
          "name": "amount",
          "type": "uint256"
        },
        {
          "internalType": "uint256",
          "name": "deadline",
          "type": "uint256"
        },
        {
          "internalType": "uint8",
          "name": "v",
          "type": "uint8"
        },
        {
          "internalType": "bytes32",
          "name": "r",
          "type": "bytes32"
        },
        {
          "internalType": "bytes32",
          "name": "s",
          "type": "bytes32"
        }
      ],
      "name": "permit",
      "outputs": [],
      "stateMutability": "nonpayable",
      "type": "function"
    },
    {
      "inputs": [],
      "name": "symbol",
      "outputs": [
        {
          "internalType": "string",
          "name": "",
          "type": "string"
        }
      ],
      "stateMutability": "view",
      "type": "function"
    },
    {
      "inputs": [],
      "name": "totalSupply",
      "outputs": [
        {
          "internalType": "uint256",
          "name": "",
          "type": "uint256"
        }
      ],
      "stateMutability": "view",
      "type": "function"
    },
    {
      "inputs": [
        {
          "internalType": "address",
          "name": "recipient",
          "type": "address"
        },
        {
          "internalType": "uint256",
          "name": "amount",
          "type": "uint256"
        }
      ],
      "name": "transfer",
      "outputs": [
        {
          "internalType": "bool",
          "name": "",
          "type": "bool"
        }
      ],
      "stateMutability": "nonpayable",
      "type": "function"
    },
    {
      "inputs": [
        {
          "internalType": "address",
          "name": "sender",
          "type": "address"
        },
        {
          "internalType": "address",
          "name": "recipient",
          "type": "address"
        },
        {
          "internalType": "uint256",
          "name": "amount",
          "type": "uint256"
        }
      ],
      "name": "transferFrom",
      "outputs": [
        {
          "internalType": "bool",
          "name": "",
          "type": "bool"
        }
      ],
      "stateMutability": "nonpayable",
      "type": "function"
    },
    {
      "inputs": [],
      "name": "version",
      "outputs": [
        {
          "internalType": "string",
          "name": "",
          "type": "string"
        }
      ],
      "stateMutability": "pure",
      "type": "function"
    }
  ],
  "bytecode": "0x60c06040527f6e71edae12b1b97f4d1f60370fef10105fa2faae0126114a169c64845d6126c96080908152503480156200003857600080fd5b50604051620027913803806200279183398181016040528101906200005e919062000423565b6040518060400160405280600481526020017f54657374000000000000000000000000000000000000000000000000000000008152506040518060400160405280600381526020017f54535400000000000000000000000000000000000000000000000000000000008152508282828160039080519060200190620000e59291906200035c565b508060049080519060200190620000fe9291906200035c565b505050806006819055507f8b73c3c69bb8fe3d512ecc4cf759cc79239f7b179b0ffacaa9a75d522b39400f8380519060200120620001416200019c60201b60201c565b805190602001206006543060405160200162000162959493929190620004d9565b6040516020818303038152906040528051906020012060a08181525050505050620001943383620001d960201b60201c565b5050620006d9565b60606040518060400160405280600181526020017f3100000000000000000000000000000000000000000000000000000000000000815250905090565b600073ffffffffffffffffffffffffffffffffffffffff168273ffffffffffffffffffffffffffffffffffffffff1614156200024c576040517f08c379a0000000000000000000000000000000000000000000000000000000008152600401620002439062000536565b60405180910390fd5b62000260600083836200035260201b60201c565b806002600082825462000274919062000586565b92505081905550806000808473ffffffffffffffffffffffffffffffffffffffff1673ffffffffffffffffffffffffffffffffffffffff1681526020019081526020016000206000828254620002cb919062000586565b925050819055508173ffffffffffffffffffffffffffffffffffffffff16600073ffffffffffffffffffffffffffffffffffffffff167fddf252ad1be2c89b69c2b068fc378daa952ba7f163c4a11628f55a4df523b3ef8360405162000332919062000558565b60405180910390a36200034e600083836200035760201b60201c565b5050565b505050565b505050565b8280546200036a906200062b565b90600052602060002090601f0160209004810192826200038e5760008555620003da565b82601f10620003a957805160ff1916838001178555620003da565b82800160010185558215620003da579182015b82811115620003d9578251825591602001919060010190620003bc565b5b509050620003e99190620003ed565b5090565b5b8082111562000408576000816000905550600101620003ee565b5090565b6000815190506200041d81620006bf565b92915050565b600080604083850312156200043757600080fd5b600062000447858286016200040c565b92505060206200045a858286016200040c565b9150509250929050565b6200046f81620005e3565b82525050565b6200048081620005f7565b82525050565b600062000495601f8362000575565b91507f45524332303a206d696e7420746f20746865207a65726f2061646472657373006000830152602082019050919050565b620004d38162000621565b82525050565b600060a082019050620004f0600083018862000475565b620004ff602083018762000475565b6200050e604083018662000475565b6200051d6060830185620004c8565b6200052c608083018462000464565b9695505050505050565b60006020820190508181036000830152620005518162000486565b9050919050565b60006020820190506200056f6000830184620004c8565b92915050565b600082825260208201905092915050565b6000620005938262000621565b9150620005a08362000621565b9250827fffffffffffffffffffffffffffffffffffffffffffffffffffffffffffffffff03821115620005d857620005d762000661565b5b828201905092915050565b6000620005f08262000601565b9050919050565b6000819050919050565b600073ffffffffffffffffffffffffffffffffffffffff82169050919050565b6000819050919050565b600060028204905060018216806200064457607f821691505b602082108114156200065b576200065a62000690565b5b50919050565b7f4e487b7100000000000000000000000000000000000000000000000000000000600052601160045260246000fd5b7f4e487b7100000000000000000000000000000000000000000000000000000000600052602260045260246000fd5b620006ca8162000621565b8114620006d657600080fd5b50565b60805160a0516120846200070d600039600081816105cb01526109e201526000818161059e015261093a01526120846000f3fe608060405234801561001057600080fd5b50600436106101215760003560e01c806354fd4d50116100ad5780639dc29fac116100715780639dc29fac14610322578063a457c2d71461033e578063a9059cbb1461036e578063d505accf1461039e578063dd62ed3e146103ba57610121565b806354fd4d501461026857806370a08231146102865780637ecebe00146102b657806395d89b41146102e65780639a8a05921461030457610121565b806330adf81f116100f457806330adf81f146101c2578063313ce567146101e05780633644e515146101fe578063395093511461021c57806340c10f191461024c57610121565b806306fdde0314610126578063095ea7b31461014457806318160ddd1461017457806323b872dd14610192575b600080fd5b61012e6103ea565b60405161013b9190611be3565b60405180910390f35b61015e60048036038101906101599190611563565b61047c565b60405161016b9190611b07565b60405180910390f35b61017c61049a565b6040516101899190611d85565b60405180910390f35b6101ac60048036038101906101a79190611476565b6104a4565b6040516101b99190611b07565b60405180910390f35b6101ca61059c565b6040516101d79190611b22565b60405180910390f35b6101e86105c0565b6040516101f59190611da0565b60405180910390f35b6102066105c9565b6040516102139190611b22565b60405180910390f35b61023660048036038101906102319190611563565b6105ed565b6040516102439190611b07565b60405180910390f35b61026660048036038101906102619190611563565b610699565b005b6102706106a7565b60405161027d9190611be3565b60405180910390f35b6102a0600480360381019061029b9190611411565b6106e4565b6040516102ad9190611d85565b60405180910390f35b6102d060048036038101906102cb9190611411565b61072c565b6040516102dd9190611d85565b60405180910390f35b6102ee610744565b6040516102fb9190611be3565b60405180910390f35b61030c6107d6565b6040516103199190611d85565b60405180910390f35b61033c60048036038101906103379190611563565b6107dc565b005b61035860048036038101906103539190611563565b6107ea565b6040516103659190611b07565b60405180910390f35b61038860048036038101906103839190611563565b6108d5565b6040516103959190611b07565b60405180910390f35b6103b860048036038101906103b391906114c5565b6108f3565b005b6103d460048036038101906103cf919061143a565b610ba1565b6040516103e19190611d85565b60405180910390f35b6060600380546103f990611efe565b80601f016020809104026020016040519081016040528092919081815260200182805461042590611efe565b80156104725780601f1061044757610100808354040283529160200191610472565b820191906000526020600020905b81548152906001019060200180831161045557829003601f168201915b5050505050905090565b6000610490610489610c28565b8484610c30565b6001905092915050565b6000600254905090565b60006104b1848484610dfb565b6000600160008673ffffffffffffffffffffffffffffffffffffffff1673ffffffffffffffffffffffffffffffffffffffff16815260200190815260200160002060006104fc610c28565b73ffffffffffffffffffffffffffffffffffffffff1673ffffffffffffffffffffffffffffffffffffffff1681526020019081526020016000205490508281101561057c576040517f08c379a000000000000000000000000000000000000000000000000000000000815260040161057390611cc5565b60405180910390fd5b61059085610588610c28565b858403610c30565b60019150509392505050565b7f000000000000000000000000000000000000000000000000000000000000000081565b60006012905090565b7f000000000000000000000000000000000000000000000000000000000000000081565b600061068f6105fa610c28565b848460016000610608610c28565b73ffffffffffffffffffffffffffffffffffffffff1673ffffffffffffffffffffffffffffffffffffffff16815260200190815260200160002060008873ffffffffffffffffffffffffffffffffffffffff1673ffffffffffffffffffffffffffffffffffffffff1681526020019081526020016000205461068a9190611de2565b610c30565b6001905092915050565b6106a3828261107c565b5050565b60606040518060400160405280600181526020017f3100000000000000000000000000000000000000000000000000000000000000815250905090565b60008060008373ffffffffffffffffffffffffffffffffffffffff1673ffffffffffffffffffffffffffffffffffffffff168152602001908152602001600020549050919050565b60056020528060005260406000206000915090505481565b60606004805461075390611efe565b80601f016020809104026020016040519081016040528092919081815260200182805461077f90611efe565b80156107cc5780601f106107a1576101008083540402835291602001916107cc565b820191906000526020600020905b8154815290600101906020018083116107af57829003601f168201915b5050505050905090565b60065481565b6107e682826111dc565b5050565b600080600160006107f9610c28565b73ffffffffffffffffffffffffffffffffffffffff1673ffffffffffffffffffffffffffffffffffffffff16815260200190815260200160002060008573ffffffffffffffffffffffffffffffffffffffff1673ffffffffffffffffffffffffffffffffffffffff168152602001908152602001600020549050828110156108b6576040517f08c379a00000000000000000000000000000000000000000000000000000000081526004016108ad90611d45565b60405180910390fd5b6108ca6108c1610c28565b85858403610c30565b600191505092915050565b60006108e96108e2610c28565b8484610dfb565b6001905092915050565b42841015610936576040517f08c379a000000000000000000000000000000000000000000000000000000000815260040161092d90611c65565b60405180910390fd5b60007f0000000000000000000000000000000000000000000000000000000000000000888888600560008d73ffffffffffffffffffffffffffffffffffffffff1673ffffffffffffffffffffffffffffffffffffffff16815260200190815260200160002060008154809291906109ac90611f30565b91905055896040516020016109c696959493929190611b3d565b60405160208183030381529060405280519060200120905060007f000000000000000000000000000000000000000000000000000000000000000082604051602001610a13929190611ad0565b604051602081830303815290604052805190602001209050600060018287878760405160008152602001604052604051610a509493929190611b9e565b6020604051602081039080840390855afa158015610a72573d6000803e3d6000fd5b505050602060405103519050600073ffffffffffffffffffffffffffffffffffffffff168173ffffffffffffffffffffffffffffffffffffffff1614158015610ae657508973ffffffffffffffffffffffffffffffffffffffff168173ffffffffffffffffffffffffffffffffffffffff16145b610b25576040517f08c379a0000000000000000000000000000000000000000000000000000000008152600401610b1c90611ca5565b60405180910390fd5b610b308a8a8a610c30565b8873ffffffffffffffffffffffffffffffffffffffff168a73ffffffffffffffffffffffffffffffffffffffff167f8c5be1e5ebec7d5bd14f71427d1e84f3dd0314c0f7b2291e5b200ac8c7c3b9258a604051610b8d9190611d85565b60405180910390a350505050505050505050565b6000600160008473ffffffffffffffffffffffffffffffffffffffff1673ffffffffffffffffffffffffffffffffffffffff16815260200190815260200160002060008373ffffffffffffffffffffffffffffffffffffffff1673ffffffffffffffffffffffffffffffffffffffff16815260200190815260200160002054905092915050565b600033905090565b600073ffffffffffffffffffffffffffffffffffffffff168373ffffffffffffffffffffffffffffffffffffffff161415610ca0576040517f08c379a0000000000000000000000000000000000000000000000000000000008152600401610c9790611d25565b60405180910390fd5b600073ffffffffffffffffffffffffffffffffffffffff168273ffffffffffffffffffffffffffffffffffffffff161415610d10576040517f08c379a0000000000000000000000000000000000000000000000000000000008152600401610d0790611c45565b60405180910390fd5b80600160008573ffffffffffffffffffffffffffffffffffffffff1673ffffffffffffffffffffffffffffffffffffffff16815260200190815260200160002060008473ffffffffffffffffffffffffffffffffffffffff1673ffffffffffffffffffffffffffffffffffffffff168152602001908152602001600020819055508173ffffffffffffffffffffffffffffffffffffffff168373ffffffffffffffffffffffffffffffffffffffff167f8c5be1e5ebec7d5bd14f71427d1e84f3dd0314c0f7b2291e5b200ac8c7c3b92583604051610dee9190611d85565b60405180910390a3505050565b600073ffffffffffffffffffffffffffffffffffffffff168373ffffffffffffffffffffffffffffffffffffffff161415610e6b576040517f08c379a0000000000000000000000000000000000000000000000000000000008152600401610e6290611d05565b60405180910390fd5b600073ffffffffffffffffffffffffffffffffffffffff168273ffffffffffffffffffffffffffffffffffffffff161415610edb576040517f08c379a0000000000000000000000000000000000000000000000000000000008152600401610ed290611c05565b60405180910390fd5b610ee68383836113b3565b60008060008573ffffffffffffffffffffffffffffffffffffffff1673ffffffffffffffffffffffffffffffffffffffff16815260200190815260200160002054905081811015610f6c576040517f08c379a0000000000000000000000000000000000000000000000000000000008152600401610f6390611c85565b60405180910390fd5b8181036000808673ffffffffffffffffffffffffffffffffffffffff1673ffffffffffffffffffffffffffffffffffffffff16815260200190815260200160002081905550816000808573ffffffffffffffffffffffffffffffffffffffff1673ffffffffffffffffffffffffffffffffffffffff1681526020019081526020016000206000828254610fff9190611de2565b925050819055508273ffffffffffffffffffffffffffffffffffffffff168473ffffffffffffffffffffffffffffffffffffffff167fddf252ad1be2c89b69c2b068fc378daa952ba7f163c4a11628f55a4df523b3ef846040516110639190611d85565b60405180910390a36110768484846113b8565b50505050565b600073ffffffffffffffffffffffffffffffffffffffff168273ffffffffffffffffffffffffffffffffffffffff1614156110ec576040517f08c379a00000000000000000000000000000000000000000000000000000000081526004016110e390611d65565b60405180910390fd5b6110f8600083836113b3565b806002600082825461110a9190611de2565b92505081905550806000808473ffffffffffffffffffffffffffffffffffffffff1673ffffffffffffffffffffffffffffffffffffffff168152602001908152602001600020600082825461115f9190611de2565b925050819055508173ffffffffffffffffffffffffffffffffffffffff16600073ffffffffffffffffffffffffffffffffffffffff167fddf252ad1be2c89b69c2b068fc378daa952ba7f163c4a11628f55a4df523b3ef836040516111c49190611d85565b60405180910390a36111d8600083836113b8565b5050565b600073ffffffffffffffffffffffffffffffffffffffff168273ffffffffffffffffffffffffffffffffffffffff16141561124c576040517f08c379a000000000000000000000000000000000000000000000000000000000815260040161124390611ce5565b60405180910390fd5b611258826000836113b3565b60008060008473ffffffffffffffffffffffffffffffffffffffff1673ffffffffffffffffffffffffffffffffffffffff168152602001908152602001600020549050818110156112de576040517f08c379a00000000000000000000000000000000000000000000000000000000081526004016112d590611c25565b60405180910390fd5b8181036000808573ffffffffffffffffffffffffffffffffffffffff1673ffffffffffffffffffffffffffffffffffffffff1681526020019081526020016000208190555081600260008282546113359190611e38565b92505081905550600073ffffffffffffffffffffffffffffffffffffffff168373ffffffffffffffffffffffffffffffffffffffff167fddf252ad1be2c89b69c2b068fc378daa952ba7f163c4a11628f55a4df523b3ef8460405161139a9190611d85565b60405180910390a36113ae836000846113b8565b505050565b505050565b505050565b6000813590506113cc81611ff2565b92915050565b6000813590506113e181612009565b92915050565b6000813590506113f681612020565b92915050565b60008135905061140b81612037565b92915050565b60006020828403121561142357600080fd5b6000611431848285016113bd565b91505092915050565b6000806040838503121561144d57600080fd5b600061145b858286016113bd565b925050602061146c858286016113bd565b9150509250929050565b60008060006060848603121561148b57600080fd5b6000611499868287016113bd565b93505060206114aa868287016113bd565b92505060406114bb868287016113e7565b9150509250925092565b600080600080600080600060e0888a0312156114e057600080fd5b60006114ee8a828b016113bd565b97505060206114ff8a828b016113bd565b96505060406115108a828b016113e7565b95505060606115218a828b016113e7565b94505060806115328a828b016113fc565b93505060a06115438a828b016113d2565b92505060c06115548a828b016113d2565b91505092959891949750929550565b6000806040838503121561157657600080fd5b6000611584858286016113bd565b9250506020611595858286016113e7565b9150509250929050565b6115a881611e6c565b82525050565b6115b781611e7e565b82525050565b6115c681611e8a565b82525050565b6115dd6115d882611e8a565b611f79565b82525050565b60006115ee82611dbb565b6115f88185611dc6565b9350611608818560208601611ecb565b61161181611fe1565b840191505092915050565b6000611629602383611dc6565b91507f45524332303a207472616e7366657220746f20746865207a65726f206164647260008301527f65737300000000000000000000000000000000000000000000000000000000006020830152604082019050919050565b600061168f602283611dc6565b91507f45524332303a206275726e20616d6f756e7420657863656564732062616c616e60008301527f63650000000000000000000000000000000000000000000000000000000000006020830152604082019050919050565b60006116f5602283611dc6565b91507f45524332303a20617070726f766520746f20746865207a65726f20616464726560008301527f73730000000000000000000000000000000000000000000000000000000000006020830152604082019050919050565b600061175b600283611dd7565b91507f19010000000000000000000000000000000000000000000000000000000000006000830152600282019050919050565b600061179b601d83611dc6565b91507f45524332305065726d69743a206578706972656420646561646c696e650000006000830152602082019050919050565b60006117db602683611dc6565b91507f45524332303a207472616e7366657220616d6f756e742065786365656473206260008301527f616c616e636500000000000000000000000000000000000000000000000000006020830152604082019050919050565b6000611841601e83611dc6565b91507f45524332305065726d69743a20696e76616c6964207369676e617475726500006000830152602082019050919050565b6000611881602883611dc6565b91507f45524332303a207472616e7366657220616d6f756e742065786365656473206160008301527f6c6c6f77616e63650000000000000000000000000000000000000000000000006020830152604082019050919050565b60006118e7602183611dc6565b91507f45524332303a206275726e2066726f6d20746865207a65726f2061646472657360008301527f73000000000000000000000000000000000000000000000000000000000000006020830152604082019050919050565b600061194d602583611dc6565b91507f45524332303a207472616e736665722066726f6d20746865207a65726f20616460008301527f64726573730000000000000000000000000000000000000000000000000000006020830152604082019050919050565b60006119b3602483611dc6565b91507f45524332303a20617070726f76652066726f6d20746865207a65726f2061646460008301527f72657373000000000000000000000000000000000000000000000000000000006020830152604082019050919050565b6000611a19602583611dc6565b91507f45524332303a2064656372656173656420616c6c6f77616e63652062656c6f7760008301527f207a65726f0000000000000000000000000000000000000000000000000000006020830152604082019050919050565b6000611a7f601f83611dc6565b91507f45524332303a206d696e7420746f20746865207a65726f2061646472657373006000830152602082019050919050565b611abb81611eb4565b82525050565b611aca81611ebe565b82525050565b6000611adb8261174e565b9150611ae782856115cc565b602082019150611af782846115cc565b6020820191508190509392505050565b6000602082019050611b1c60008301846115ae565b92915050565b6000602082019050611b3760008301846115bd565b92915050565b600060c082019050611b5260008301896115bd565b611b5f602083018861159f565b611b6c604083018761159f565b611b796060830186611ab2565b611b866080830185611ab2565b611b9360a0830184611ab2565b979650505050505050565b6000608082019050611bb360008301876115bd565b611bc06020830186611ac1565b611bcd60408301856115bd565b611bda60608301846115bd565b95945050505050565b60006020820190508181036000830152611bfd81846115e3565b905092915050565b60006020820190508181036000830152611c1e8161161c565b9050919050565b60006020820190508181036000830152611c3e81611682565b9050919050565b60006020820190508181036000830152611c5e816116e8565b9050919050565b60006020820190508181036000830152611c7e8161178e565b9050919050565b60006020820190508181036000830152611c9e816117ce565b9050919050565b60006020820190508181036000830152611cbe81611834565b9050919050565b60006020820190508181036000830152611cde81611874565b9050919050565b60006020820190508181036000830152611cfe816118da565b9050919050565b60006020820190508181036000830152611d1e81611940565b9050919050565b60006020820190508181036000830152611d3e816119a6565b9050919050565b60006020820190508181036000830152611d5e81611a0c565b9050919050565b60006020820190508181036000830152611d7e81611a72565b9050919050565b6000602082019050611d9a6000830184611ab2565b92915050565b6000602082019050611db56000830184611ac1565b92915050565b600081519050919050565b600082825260208201905092915050565b600081905092915050565b6000611ded82611eb4565b9150611df883611eb4565b9250827fffffffffffffffffffffffffffffffffffffffffffffffffffffffffffffffff03821115611e2d57611e2c611f83565b5b828201905092915050565b6000611e4382611eb4565b9150611e4e83611eb4565b925082821015611e6157611e60611f83565b5b828203905092915050565b6000611e7782611e94565b9050919050565b60008115159050919050565b6000819050919050565b600073ffffffffffffffffffffffffffffffffffffffff82169050919050565b6000819050919050565b600060ff82169050919050565b60005b83811015611ee9578082015181840152602081019050611ece565b83811115611ef8576000848401525b50505050565b60006002820490506001821680611f1657607f821691505b60208210811415611f2a57611f29611fb2565b5b50919050565b6000611f3b82611eb4565b91507fffffffffffffffffffffffffffffffffffffffffffffffffffffffffffffffff821415611f6e57611f6d611f83565b5b600182019050919050565b6000819050919050565b7f4e487b7100000000000000000000000000000000000000000000000000000000600052601160045260246000fd5b7f4e487b7100000000000000000000000000000000000000000000000000000000600052602260045260246000fd5b6000601f19601f8301169050919050565b611ffb81611e6c565b811461200657600080fd5b50565b61201281611e8a565b811461201d57600080fd5b50565b61202981611eb4565b811461203457600080fd5b50565b61204081611ebe565b811461204b57600080fd5b5056fea2646970667358221220fa906c53fa78ea8c5ba2e0684bde8c50b3a65ca3f9d928cf5997aac3a5e3cc3c64736f6c63430008000033",
  "linkReferences": {},
  "deployedLinkReferences": {}
}